{
  "_format": "hh-sol-artifact-1",
  "contractName": "Employer",
  "sourceName": "contracts/Employer.sol",
  "abi": [
    {
      "inputs": [
        {
          "internalType": "string",
          "name": "_employerName",
          "type": "string"
        }
      ],
      "stateMutability": "nonpayable",
      "type": "constructor"
    },
    {
      "anonymous": false,
      "inputs": [
        {
          "indexed": true,
          "internalType": "address",
          "name": "previousOwner",
          "type": "address"
        },
        {
          "indexed": true,
          "internalType": "address",
          "name": "newOwner",
          "type": "address"
        }
      ],
      "name": "OwnershipTransferred",
      "type": "event"
    },
    {
      "inputs": [
        {
          "internalType": "address",
          "name": "_toAdd",
          "type": "address"
        },
        {
          "internalType": "uint256",
          "name": "_salary",
          "type": "uint256"
        }
      ],
      "name": "addEmployee",
      "outputs": [],
      "stateMutability": "nonpayable",
      "type": "function"
    },
    {
      "inputs": [
        {
          "internalType": "address",
          "name": "_employee",
          "type": "address"
        }
      ],
      "name": "checkEmployeeStatus",
      "outputs": [
        {
          "internalType": "uint8",
          "name": "",
          "type": "uint8"
        }
      ],
      "stateMutability": "view",
      "type": "function"
    },
    {
      "inputs": [
        {
          "internalType": "address",
          "name": "_employee",
          "type": "address"
        }
      ],
      "name": "deposit",
      "outputs": [],
      "stateMutability": "nonpayable",
      "type": "function"
    },
    {
      "inputs": [
        {
          "internalType": "address",
          "name": "_employee",
          "type": "address"
        }
      ],
      "name": "getLockedBalance",
      "outputs": [
        {
          "internalType": "uint256",
          "name": "",
          "type": "uint256"
        }
      ],
      "stateMutability": "nonpayable",
      "type": "function"
    },
    {
      "inputs": [],
      "name": "getNumEmployees",
      "outputs": [
        {
          "internalType": "uint32",
          "name": "",
          "type": "uint32"
        }
      ],
      "stateMutability": "view",
      "type": "function"
    },
    {
      "inputs": [
        {
          "internalType": "address",
          "name": "_employee",
          "type": "address"
        }
      ],
      "name": "getSalary",
      "outputs": [
        {
          "internalType": "uint256",
          "name": "",
          "type": "uint256"
        }
      ],
      "stateMutability": "view",
      "type": "function"
    },
    {
      "inputs": [
        {
          "internalType": "address",
          "name": "_employee",
          "type": "address"
        }
      ],
      "name": "getUnlockedBalance",
      "outputs": [
        {
          "internalType": "uint256",
          "name": "",
          "type": "uint256"
        }
      ],
      "stateMutability": "nonpayable",
      "type": "function"
    },
    {
      "inputs": [],
      "name": "owner",
      "outputs": [
        {
          "internalType": "address",
          "name": "",
          "type": "address"
        }
      ],
      "stateMutability": "view",
      "type": "function"
    },
    {
      "inputs": [],
      "name": "renounceOwnership",
      "outputs": [],
      "stateMutability": "nonpayable",
      "type": "function"
    },
    {
      "inputs": [
        {
          "internalType": "address",
          "name": "newOwner",
          "type": "address"
        }
      ],
      "name": "transferOwnership",
      "outputs": [],
      "stateMutability": "nonpayable",
      "type": "function"
    },
    {
      "inputs": [
        {
          "internalType": "address",
          "name": "_employee",
          "type": "address"
        }
      ],
      "name": "unlockBalance",
      "outputs": [],
      "stateMutability": "nonpayable",
      "type": "function"
    },
    {
      "inputs": [
        {
          "internalType": "address",
          "name": "_employee",
          "type": "address"
        }
      ],
      "name": "updateEmployeeStatus",
      "outputs": [],
      "stateMutability": "nonpayable",
      "type": "function"
    },
    {
      "inputs": [
        {
          "internalType": "address",
          "name": "_employee",
          "type": "address"
        },
        {
          "internalType": "uint256",
          "name": "_salary",
          "type": "uint256"
        }
      ],
      "name": "updateSalary",
      "outputs": [],
      "stateMutability": "nonpayable",
      "type": "function"
    },
    {
      "inputs": [
        {
          "internalType": "address",
          "name": "_employee",
          "type": "address"
        },
        {
          "internalType": "uint256",
          "name": "_amount",
          "type": "uint256"
        }
      ],
      "name": "updateWithdrawnBalance",
      "outputs": [],
      "stateMutability": "nonpayable",
      "type": "function"
    }
  ],
  "bytecode": "0x60806040523480156200001157600080fd5b50604051620023d2380380620023d28339818101604052810190620000379190620002a6565b620000576200004b620000b860201b60201c565b620000c060201b60201c565b80600190805190602001906200006f92919062000184565b5033600260006101000a81548173ffffffffffffffffffffffffffffffffffffffff021916908373ffffffffffffffffffffffffffffffffffffffff160217905550506200045b565b600033905090565b60008060009054906101000a900473ffffffffffffffffffffffffffffffffffffffff169050816000806101000a81548173ffffffffffffffffffffffffffffffffffffffff021916908373ffffffffffffffffffffffffffffffffffffffff1602179055508173ffffffffffffffffffffffffffffffffffffffff168173ffffffffffffffffffffffffffffffffffffffff167f8be0079c531659141344cd1fd0a4f28419497f9722a3daafe3b4186f6b6457e060405160405180910390a35050565b828054620001929062000380565b90600052602060002090601f016020900481019282620001b6576000855562000202565b82601f10620001d157805160ff191683800117855562000202565b8280016001018555821562000202579182015b8281111562000201578251825591602001919060010190620001e4565b5b50905062000211919062000215565b5090565b5b808211156200023057600081600090555060010162000216565b5090565b60006200024b620002458462000314565b620002eb565b9050828152602081018484840111156200026457600080fd5b620002718482856200034a565b509392505050565b600082601f8301126200028b57600080fd5b81516200029d84826020860162000234565b91505092915050565b600060208284031215620002b957600080fd5b600082015167ffffffffffffffff811115620002d457600080fd5b620002e28482850162000279565b91505092915050565b6000620002f76200030a565b9050620003058282620003b6565b919050565b6000604051905090565b600067ffffffffffffffff8211156200033257620003316200041b565b5b6200033d826200044a565b9050602081019050919050565b60005b838110156200036a5780820151818401526020810190506200034d565b838111156200037a576000848401525b50505050565b600060028204905060018216806200039957607f821691505b60208210811415620003b057620003af620003ec565b5b50919050565b620003c1826200044a565b810181811067ffffffffffffffff82111715620003e357620003e26200041b565b5b80604052505050565b7f4e487b7100000000000000000000000000000000000000000000000000000000600052602260045260246000fd5b7f4e487b7100000000000000000000000000000000000000000000000000000000600052604160045260246000fd5b6000601f19601f8301169050919050565b611f67806200046b6000396000f3fe608060405234801561001057600080fd5b50600436106100ea5760003560e01c8063c40868931161008c578063e7fd9a1311610066578063e7fd9a1314610249578063ed8f515d14610265578063f2fde38b14610281578063f340fa011461029d576100ea565b8063c4086893146101df578063cdd1b4471461020f578063ce7a60ab1461022d576100ea565b8063727c808d116100c8578063727c808d1461014557806384e70d9e146101755780638da5cb5b146101a5578063b84ca487146101c3576100ea565b8063129de5bf146100ef57806322003f101461011f578063715018a61461013b575b600080fd5b61010960048036038101906101049190611619565b6102b9565b60405161011691906119b6565b60405180910390f35b61013960048036038101906101349190611642565b61039a565b005b6101436104f3565b005b61015f600480360381019061015a9190611619565b61057b565b60405161016c91906119ec565b60405180910390f35b61018f600480360381019061018a9190611619565b61072c565b60405161019c91906119b6565b60405180910390f35b6101ad6108d0565b6040516101ba919061183b565b60405180910390f35b6101dd60048036038101906101d89190611642565b6108f9565b005b6101f960048036038101906101f49190611619565b610a7c565b60405161020691906119b6565b60405180910390f35b610217610b5d565b60405161022491906119d1565b60405180910390f35b61024760048036038101906102429190611619565b610bf3565b005b610263600480360381019061025e9190611642565b610e22565b005b61027f600480360381019061027a9190611619565b611081565b005b61029b60048036038101906102969190611619565b611273565b005b6102b760048036038101906102b29190611619565b61136b565b005b6000816000600460008373ffffffffffffffffffffffffffffffffffffffff1673ffffffffffffffffffffffffffffffffffffffff16815260200190815260200160002060009054906101000a900460ff1660ff16141561034f576040517f08c379a0000000000000000000000000000000000000000000000000000000008152600401610346906118d6565b60405180910390fd5b600560008473ffffffffffffffffffffffffffffffffffffffff1673ffffffffffffffffffffffffffffffffffffffff16815260200190815260200160002060000154915050919050565b6103a2611523565b73ffffffffffffffffffffffffffffffffffffffff166103c06108d0565b73ffffffffffffffffffffffffffffffffffffffff1614610416576040517f08c379a000000000000000000000000000000000000000000000000000000000815260040161040d906118f6565b60405180910390fd5b816000600460008373ffffffffffffffffffffffffffffffffffffffff1673ffffffffffffffffffffffffffffffffffffffff16815260200190815260200160002060009054906101000a900460ff1660ff1614156104aa576040517f08c379a00000000000000000000000000000000000000000000000000000000081526004016104a1906118d6565b60405180910390fd5b81600360008573ffffffffffffffffffffffffffffffffffffffff1673ffffffffffffffffffffffffffffffffffffffff16815260200190815260200160002081905550505050565b6104fb611523565b73ffffffffffffffffffffffffffffffffffffffff166105196108d0565b73ffffffffffffffffffffffffffffffffffffffff161461056f576040517f08c379a0000000000000000000000000000000000000000000000000000000008152600401610566906118f6565b60405180910390fd5b610579600061152b565b565b6000816000600460008373ffffffffffffffffffffffffffffffffffffffff1673ffffffffffffffffffffffffffffffffffffffff16815260200190815260200160002060009054906101000a900460ff1660ff161415610611576040517f08c379a0000000000000000000000000000000000000000000000000000000008152600401610608906118d6565b60405180910390fd5b8273ffffffffffffffffffffffffffffffffffffffff163273ffffffffffffffffffffffffffffffffffffffff1614806106985750600260009054906101000a900473ffffffffffffffffffffffffffffffffffffffff1673ffffffffffffffffffffffffffffffffffffffff163373ffffffffffffffffffffffffffffffffffffffff16145b6106d7576040517f08c379a00000000000000000000000000000000000000000000000000000000081526004016106ce90611936565b60405180910390fd5b600460008473ffffffffffffffffffffffffffffffffffffffff1673ffffffffffffffffffffffffffffffffffffffff16815260200190815260200160002060009054906101000a900460ff16915050919050565b6000816000600460008373ffffffffffffffffffffffffffffffffffffffff1673ffffffffffffffffffffffffffffffffffffffff16815260200190815260200160002060009054906101000a900460ff1660ff1614156107c2576040517f08c379a00000000000000000000000000000000000000000000000000000000081526004016107b9906118d6565b60405180910390fd5b8273ffffffffffffffffffffffffffffffffffffffff163273ffffffffffffffffffffffffffffffffffffffff1614806108495750600260009054906101000a900473ffffffffffffffffffffffffffffffffffffffff1673ffffffffffffffffffffffffffffffffffffffff163373ffffffffffffffffffffffffffffffffffffffff16145b610888576040517f08c379a000000000000000000000000000000000000000000000000000000000815260040161087f90611956565b60405180910390fd5b600360008473ffffffffffffffffffffffffffffffffffffffff1673ffffffffffffffffffffffffffffffffffffffff16815260200190815260200160002054915050919050565b60008060009054906101000a900473ffffffffffffffffffffffffffffffffffffffff16905090565b816000600460008373ffffffffffffffffffffffffffffffffffffffff1673ffffffffffffffffffffffffffffffffffffffff16815260200190815260200160002060009054906101000a900460ff1660ff16141561098d576040517f08c379a0000000000000000000000000000000000000000000000000000000008152600401610984906118d6565b60405180910390fd5b600082600560008673ffffffffffffffffffffffffffffffffffffffff1673ffffffffffffffffffffffffffffffffffffffff168152602001908152602001600020600001546109dd9190611ad9565b1015610a1e576040517f08c379a0000000000000000000000000000000000000000000000000000000008152600401610a1590611976565b60405180910390fd5b81600560008573ffffffffffffffffffffffffffffffffffffffff1673ffffffffffffffffffffffffffffffffffffffff1681526020019081526020016000206000016000828254610a709190611ad9565b92505081905550505050565b6000816000600460008373ffffffffffffffffffffffffffffffffffffffff1673ffffffffffffffffffffffffffffffffffffffff16815260200190815260200160002060009054906101000a900460ff1660ff161415610b12576040517f08c379a0000000000000000000000000000000000000000000000000000000008152600401610b09906118d6565b60405180910390fd5b600560008473ffffffffffffffffffffffffffffffffffffffff1673ffffffffffffffffffffffffffffffffffffffff16815260200190815260200160002060010154915050919050565b6000610b67611523565b73ffffffffffffffffffffffffffffffffffffffff16610b856108d0565b73ffffffffffffffffffffffffffffffffffffffff1614610bdb576040517f08c379a0000000000000000000000000000000000000000000000000000000008152600401610bd2906118f6565b60405180910390fd5b600260149054906101000a900463ffffffff16905090565b806000600460008373ffffffffffffffffffffffffffffffffffffffff1673ffffffffffffffffffffffffffffffffffffffff16815260200190815260200160002060009054906101000a900460ff1660ff161415610c87576040517f08c379a0000000000000000000000000000000000000000000000000000000008152600401610c7e906118d6565b60405180910390fd5b6000601e600560008573ffffffffffffffffffffffffffffffffffffffff1673ffffffffffffffffffffffffffffffffffffffff16815260200190815260200160002060010154610cd89190611aa8565b9050600081600560008673ffffffffffffffffffffffffffffffffffffffff1673ffffffffffffffffffffffffffffffffffffffff16815260200190815260200160002060010154610d2a9190611ad9565b1015610d6b576040517f08c379a0000000000000000000000000000000000000000000000000000000008152600401610d6290611996565b60405180910390fd5b80600560008573ffffffffffffffffffffffffffffffffffffffff1673ffffffffffffffffffffffffffffffffffffffff1681526020019081526020016000206001016000828254610dbd9190611ad9565b9250508190555080600560008573ffffffffffffffffffffffffffffffffffffffff1673ffffffffffffffffffffffffffffffffffffffff1681526020019081526020016000206000016000828254610e169190611a18565b92505081905550505050565b610e2a611523565b73ffffffffffffffffffffffffffffffffffffffff16610e486108d0565b73ffffffffffffffffffffffffffffffffffffffff1614610e9e576040517f08c379a0000000000000000000000000000000000000000000000000000000008152600401610e95906118f6565b60405180910390fd5b600073ffffffffffffffffffffffffffffffffffffffff168273ffffffffffffffffffffffffffffffffffffffff161415610f0e576040517f08c379a0000000000000000000000000000000000000000000000000000000008152600401610f0590611856565b60405180910390fd5b6000600460008473ffffffffffffffffffffffffffffffffffffffff1673ffffffffffffffffffffffffffffffffffffffff16815260200190815260200160002060009054906101000a900460ff1660ff1614610fa0576040517f08c379a0000000000000000000000000000000000000000000000000000000008152600401610f97906118b6565b60405180910390fd5b80600360008473ffffffffffffffffffffffffffffffffffffffff1673ffffffffffffffffffffffffffffffffffffffff168152602001908152602001600020819055506001600460008473ffffffffffffffffffffffffffffffffffffffff1673ffffffffffffffffffffffffffffffffffffffff16815260200190815260200160002060006101000a81548160ff021916908360ff1602179055506001600260148282829054906101000a900463ffffffff1661105f9190611a6e565b92506101000a81548163ffffffff021916908363ffffffff1602179055505050565b806000600460008373ffffffffffffffffffffffffffffffffffffffff1673ffffffffffffffffffffffffffffffffffffffff16815260200190815260200160002060009054906101000a900460ff1660ff161415611115576040517f08c379a000000000000000000000000000000000000000000000000000000000815260040161110c906118d6565b60405180910390fd5b6002600460008473ffffffffffffffffffffffffffffffffffffffff1673ffffffffffffffffffffffffffffffffffffffff16815260200190815260200160002060009054906101000a900460ff1660ff1614156111a8576040517f08c379a000000000000000000000000000000000000000000000000000000000815260040161119f90611916565b60405180910390fd5b8173ffffffffffffffffffffffffffffffffffffffff163273ffffffffffffffffffffffffffffffffffffffff1614611216576040517f08c379a000000000000000000000000000000000000000000000000000000000815260040161120d90611876565b60405180910390fd5b6002600460008473ffffffffffffffffffffffffffffffffffffffff1673ffffffffffffffffffffffffffffffffffffffff16815260200190815260200160002060006101000a81548160ff021916908360ff1602179055505050565b61127b611523565b73ffffffffffffffffffffffffffffffffffffffff166112996108d0565b73ffffffffffffffffffffffffffffffffffffffff16146112ef576040517f08c379a00000000000000000000000000000000000000000000000000000000081526004016112e6906118f6565b60405180910390fd5b600073ffffffffffffffffffffffffffffffffffffffff168173ffffffffffffffffffffffffffffffffffffffff16141561135f576040517f08c379a000000000000000000000000000000000000000000000000000000000815260040161135690611896565b60405180910390fd5b6113688161152b565b50565b806000600460008373ffffffffffffffffffffffffffffffffffffffff1673ffffffffffffffffffffffffffffffffffffffff16815260200190815260200160002060009054906101000a900460ff1660ff1614156113ff576040517f08c379a00000000000000000000000000000000000000000000000000000000081526004016113f6906118d6565b60405180910390fd5b611407611523565b73ffffffffffffffffffffffffffffffffffffffff166114256108d0565b73ffffffffffffffffffffffffffffffffffffffff161461147b576040517f08c379a0000000000000000000000000000000000000000000000000000000008152600401611472906118f6565b60405180910390fd5b600c600360008473ffffffffffffffffffffffffffffffffffffffff1673ffffffffffffffffffffffffffffffffffffffff168152602001908152602001600020546114c79190611aa8565b600560008473ffffffffffffffffffffffffffffffffffffffff1673ffffffffffffffffffffffffffffffffffffffff16815260200190815260200160002060010160008282546115189190611a18565b925050819055505050565b600033905090565b60008060009054906101000a900473ffffffffffffffffffffffffffffffffffffffff169050816000806101000a81548173ffffffffffffffffffffffffffffffffffffffff021916908373ffffffffffffffffffffffffffffffffffffffff1602179055508173ffffffffffffffffffffffffffffffffffffffff168173ffffffffffffffffffffffffffffffffffffffff167f8be0079c531659141344cd1fd0a4f28419497f9722a3daafe3b4186f6b6457e060405160405180910390a35050565b6000813590506115fe81611f03565b92915050565b60008135905061161381611f1a565b92915050565b60006020828403121561162b57600080fd5b6000611639848285016115ef565b91505092915050565b6000806040838503121561165557600080fd5b6000611663858286016115ef565b925050602061167485828601611604565b9150509250929050565b61168781611b0d565b82525050565b600061169a602383611a07565b91506116a582611bc4565b604082019050919050565b60006116bd602c83611a07565b91506116c882611c13565b604082019050919050565b60006116e0602683611a07565b91506116eb82611c62565b604082019050919050565b6000611703602c83611a07565b915061170e82611cb1565b604082019050919050565b6000611726602783611a07565b915061173182611d00565b604082019050919050565b6000611749602083611a07565b915061175482611d4f565b602082019050919050565b600061176c603583611a07565b915061177782611d78565b604082019050919050565b600061178f602d83611a07565b915061179a82611dc7565b604082019050919050565b60006117b2602d83611a07565b91506117bd82611e16565b604082019050919050565b60006117d5603583611a07565b91506117e082611e65565b604082019050919050565b60006117f8603183611a07565b915061180382611eb4565b604082019050919050565b61181781611b3f565b82525050565b61182681611b49565b82525050565b61183581611b59565b82525050565b6000602082019050611850600083018461167e565b92915050565b6000602082019050818103600083015261186f8161168d565b9050919050565b6000602082019050818103600083015261188f816116b0565b9050919050565b600060208201905081810360008301526118af816116d3565b9050919050565b600060208201905081810360008301526118cf816116f6565b9050919050565b600060208201905081810360008301526118ef81611719565b9050919050565b6000602082019050818103600083015261190f8161173c565b9050919050565b6000602082019050818103600083015261192f8161175f565b9050919050565b6000602082019050818103600083015261194f81611782565b9050919050565b6000602082019050818103600083015261196f816117a5565b9050919050565b6000602082019050818103600083015261198f816117c8565b9050919050565b600060208201905081810360008301526119af816117eb565b9050919050565b60006020820190506119cb600083018461180e565b92915050565b60006020820190506119e6600083018461181d565b92915050565b6000602082019050611a01600083018461182c565b92915050565b600082825260208201905092915050565b6000611a2382611b3f565b9150611a2e83611b3f565b9250827fffffffffffffffffffffffffffffffffffffffffffffffffffffffffffffffff03821115611a6357611a62611b66565b5b828201905092915050565b6000611a7982611b49565b9150611a8483611b49565b92508263ffffffff03821115611a9d57611a9c611b66565b5b828201905092915050565b6000611ab382611b3f565b9150611abe83611b3f565b925082611ace57611acd611b95565b5b828204905092915050565b6000611ae482611b3f565b9150611aef83611b3f565b925082821015611b0257611b01611b66565b5b828203905092915050565b6000611b1882611b1f565b9050919050565b600073ffffffffffffffffffffffffffffffffffffffff82169050919050565b6000819050919050565b600063ffffffff82169050919050565b600060ff82169050919050565b7f4e487b7100000000000000000000000000000000000000000000000000000000600052601160045260246000fd5b7f4e487b7100000000000000000000000000000000000000000000000000000000600052601260045260246000fd5b7f43616e277420616464207a65726f206164647265737320746f20656d706c6f7960008201527f6565730000000000000000000000000000000000000000000000000000000000602082015250565b7f456d706c6f796565732063616e206f6e6c79207570646174652074686569722060008201527f6f776e2073746174757365730000000000000000000000000000000000000000602082015250565b7f4f776e61626c653a206e6577206f776e657220697320746865207a65726f206160008201527f6464726573730000000000000000000000000000000000000000000000000000602082015250565b7f456d706c6f7965652068617320616c7265616479206265656e2061646465642060008201527f746f20656d706c6f796565730000000000000000000000000000000000000000602082015250565b7f456d706c6f79656520686173206e6f74206265656e206164646564206279206560008201527f6d706c6f79657200000000000000000000000000000000000000000000000000602082015250565b7f4f776e61626c653a2063616c6c6572206973206e6f7420746865206f776e6572600082015250565b7f456d706c6f7965652070726f66696c652068617320616c72656164792062656560008201527f6e206372656174656420627920656d706c6f7965650000000000000000000000602082015250565b7f456d706c6f796565732063616e206f6e6c79207265717565737420746865697260008201527f206f776e20737461747573657300000000000000000000000000000000000000602082015250565b7f456d706c6f796565732063616e206f6e6c79207265717565737420746865697260008201527f206f776e2073616c617269657300000000000000000000000000000000000000602082015250565b7f43616e2774207769746864726177206d6f7265207468616e2074686520756e6c60008201527f6f636b65642066756e647320617661696c61626c650000000000000000000000602082015250565b7f43616e277420756e6c6f636b206d6f7265207468616e20746865206c6f636b6560008201527f642066756e647320617661696c61626c65000000000000000000000000000000602082015250565b611f0c81611b0d565b8114611f1757600080fd5b50565b611f2381611b3f565b8114611f2e57600080fd5b5056fea264697066735822122042495be0c253ab5313bc731bc42bf78ccf1cfb30b1ea9bd50286204ac115320f64736f6c63430008040033",
  "linkReferences": {},
  "deployedLinkReferences": {}
}